:020000040000fa
:080000000002040000000000f2
:020000040000fa
:04000800ac02000046
:020000040000fa
:04000c00ac02000042
:020000040000fa
:04001000ac0200003e
:020000040000fa
:04001400ac0200003a
:020000040000fa
:04001800ac02000036
:020000040000fa
:04001c00ac02000032
:020000040000fa
:04002000ac0200002e
:020000040000fa
:04002400ac0200002a
:020000040000fa
:04002800ac02000026
:020000040000fa
:04002c00ac02000022
:020000040000fa
:04003000ac0200001e
:020000040000fa
:04003400fa060000c8
:020000040000fa
:04003800ac02000016
:020000040000fa
:04003c00ac02000012
:020000040000fa
:04004000ac0200000e
:020000040000fa
:04004400ac0200000a
:020000040000fa
:04004800ac02000006
:020000040000fa
:04004c00ac02000002
:020000040000fa
:04005000ac020000fe
:020000040000fa
:04005400ac020000fa
:020000040000fa
:04005800ac020000f6
:020000040000fa
:04005c00ac020000f2
:020000040000fa
:04006000ac020000ee
:020000040000fa
:04006400ac020000ea
:020000040000fa
:04006800ac020000e6
:020000040000fa
:04006c00ac020000e2
:020000040000fa
:04007000ac020000de
:020000040000fa
:04007400ac020000da
:020000040000fa
:040078001a06000064
:020000040000fa
:04007c00ac020000d2
:020000040000fa
:04008000ac020000ce
:020000040000fa
:04008400ac020000ca
:020000040000fa
:04008800ac020000c6
:020000040000fa
:04008c00ac020000c2
:020000040000fa
:04009000ac020000be
:020000040000fa
:04009400ac020000ba
:020000040000fa
:04009800ac020000b6
:020000040000fa
:04009c008a060000d0
:020000040000fa
:0400a000ac020000ae
:020000040000fa
:0400a400ac020000aa
:020000040000fa
:0400a800ac020000a6
:020000040000fa
:0400ac00ac020000a2
:020000040000fa
:0400b000ac0200009e
:020000040000fa
:0400b400ac0200009a
:020000040000fa
:0400b800ac02000096
:020000040000fa
:0400bc00ac02000092
:020000040000fa
:0400c000ac0200008e
:020000040000fa
:0400c400ac0200008a
:020000040000fa
:0400c800ac02000086
:020000040000fa
:0400cc00ac02000082
:020000040000fa
:0400d000ac0200007e
:020000040000fa
:0400d400ac0200007a
:020000040000fa
:0400d800ac02000076
:020000040000fa
:0400dc00ac02000072
:020000040000fa
:0400e000ac0200006e
:020000040000fa
:0400e400ac0200006a
:020000040000fa
:0400e800ac02000066
:020000040000fa
:0400ec00ac02000062
:020000040000fa
:0400f000ac0200005e
:020000040000fa
:0400f400ac0200005a
:020000040000fa
:0400f800ac02000056
:020000040000fa
:0400fc00ac02000052
:020000040000fa
:04010000ac0200004d
:020000040000fa
:04010400ac02000049
:020000040000fa
:04010800ac02000045
:020000040000fa
:04010c00ac02000041
:020000040000fa
:04011000ac0200003d
:020000040000fa
:04011400ac02000039
:020000040000fa
:04011800ac02000035
:020000040000fa
:04011c00ac02000031
:020000040000fa
:04012000ac0200002d
:020000040000fa
:04012400ac02000029
:020000040000fa
:04012800ac02000025
:020000040000fa
:04012c00ac02000021
:020000040000fa
:04013000ac0200001d
:020000040000fa
:04013400ac02000019
:020000040000fa
:04013800ac02000015
:020000040000fa
:04013c00ac02000011
:020000040000fa
:04014000ac0200000d
:020000040000fa
:04014400ac02000009
:020000040000fa
:04014800ac02000005
:020000040000fa
:04020800ac02000044
:020000040000fa
:04020c00ac02000040
:020000040000fa
:04021000ac0200003c
:020000040000fa
:04021400ac02000038
:020000040000fa
:04021800ac02000034
:020000040000fa
:04021c00ac02000030
:020000040000fa
:04022000ac0200002c
:020000040000fa
:04022400ac02000028
:020000040000fa
:04022800ac02000024
:020000040000fa
:04022c00ac02000020
:020000040000fa
:04023000ac0200001c
:020000040000fa
:04023400ac02000018
:020000040000fa
:04023800ac02000014
:020000040000fa
:04023c00ac02000010
:020000040000fa
:04024000ac0200000c
:020000040000fa
:04024400ac02000008
:020000040000fa
:04024800ac02000004
:020000040000fa
:04024c00ac02000000
:020000040000fa
:04025000ac020000fc
:020000040000fa
:04025400ac020000f8
:020000040000fa
:04025800ac020000f4
:020000040000fa
:04025c00ac020000f0
:020000040000fa
:04026000ac020000ec
:020000040000fa
:04026400ac020000e8
:020000040000fa
:04026800ac020000e4
:020000040000fa
:04026c00ac020000e0
:020000040000fa
:04027000ac020000dc
:020000040000fa
:04027400ac020000d8
:020000040000fa
:04027800ac020000d4
:020000040000fa
:04027c00ac020000d0
:020000040000fa
:04028000ac020000cc
:020000040000fa
:04028400ac020000c8
:020000040000fa
:04028800ac020000c4
:020000040000fa
:04028c00ac020000c0
:020000040000fa
:04029000ac020000bc
:020000040000fa
:04029400ac020000b8
:020000040000fa
:04029800ac020000b4
:020000040000fa
:04029c00ac020000b0
:020000040000fa
:0402a000ac020000ac
:020000040000fa
:0402a400ac020000a8
:020000040000fa
:0402a800ac020000a4
:020000040000fa
:0402ac00ac020000a0
:020000040000fa
:0402b000ac0200009c
:020000040000fa
:0402b400ac02000098
:020000040000fa
:0402b800ac02000094
:020000040000fa
:0402bc00ac02000090
:020000040000fa
:0402c000ac0200008c
:020000040000fa
:0402c400ac02000088
:020000040000fa
:0402c800ac02000084
:020000040000fa
:0402cc00ac02000080
:020000040000fa
:0402d000ac0200007c
:020000040000fa
:0402d400ac02000078
:020000040000fa
:0402d800ac02000074
:020000040000fa
:0402dc00ac02000070
:020000040000fa
:0402e000ac0200006c
:020000040000fa
:0402e400ac02000068
:020000040000fa
:0402e800ac02000064
:020000040000fa
:0402ec00ac02000060
:020000040000fa
:0402f000ac0200005c
:020000040000fa
:0402f400ac02000058
:020000040000fa
:0402f800ac02000054
:020000040000fa
:0402fc00ac02000050
:020000040000fa
:04030000ac0200004b
:020000040000fa
:04030400ac02000047
:020000040000fa
:04030800ac02000043
:020000040000fa
:04030c00ac0200003f
:020000040000fa
:04031000ac0200003b
:020000040000fa
:04031400ac02000037
:020000040000fa
:04031800ac02000033
:020000040000fa
:04031c00ac0200002f
:020000040000fa
:04032000ac0200002b
:020000040000fa
:04032400ac02000027
:020000040000fa
:04032800ac02000023
:020000040000fa
:04032c00ac0200001f
:020000040000fa
:04033000ac0200001b
:020000040000fa
:04033400ac02000017
:020000040000fa
:04033800ac02000013
:020000040000fa
:04033c00ac0200000f
:020000040000fa
:04034000ac0200000b
:020000040000fa
:04034400ac02000007
:020000040000fa
:04034800ac02000003
:020000040000fa
:100400000f8820000e7f22000e01880000000000ef
:10041000000020000000e000020032000001200087
:10042000200288000c000700a0e820000100200046
:1004300011000700000020000000e0000200320070
:100440000000020000000000c004020000000000e4
:100450000040da000000fe004440a9000000200037
:100460000000e0000300320000002000a00188002e
:100470004440a80000000600910188008000780038
:100480000000eb0015003700e280400032a0b4000d
:100490009101ba00e280400032a0b4009102ba009b
:1004a000e280400032a0b4000002eb00472bde00e7
:1004b000f507b200602ce10004003a000059eb009f
:1004c0008301e900fdff3e00040037006128e100e0
:1004d000010032000082eb000b00070011c3ba00dc
:1004e0001101ba000604e00003003a000200e00037
:1004f000e5ff3a0000000600f607b200960188000a
:1005000082007800f5ff37003159ba008301e90015
:100510000c0032002159ba008301e90008003200c2
:100520000400e00003003a00e280400032a0b40082
:10053000f5ff370011d9ba008301e900faff3a004c
:100540008100e800e180400032a0b4000000060015
:1005500000000000000000000040da000000fe0083
:10056000889fbe008a9fbe008c1f7800760007001f
:100570007d00330003866c006450e1002e003200e1
:100580006420e100330032006150e1002f003200ae
:100590006120e1003100320085855500eb07b00095
:1005a000090020000804200005003700080444006a
:1005b00089844c000a0031000603430087834b0006
:1005c0000001530081815b00f8ff33000203be008d
:1005d0000800a0000804440089844c00f6ff39009c
:1005e000c639dd00830173000100320013002000d2
:1005f0008904d1000884d3000998a30005003200c3
:100600000800a7000300a0008904d1000884d300db
:100610008b05e8008904d1000884d3000001eb00b9
:100620000281d2002200070001f0a1000cf0a70017
:1006300001f0a000550037006420e10057003200af
:100640000801be000200be00f7ff37006120e10094
:10065000520032006000b800f3ff370000002000b5
:1006600001f82700f0ff3700839f68000100e000d9
:1006700002003d0060001000e08018000300e00070
:1006800002003d0060011100e081190055000700e3
:100690004f00e00002003b0060001000e080180006
:1006a000000006004f89de008201780060003700fc
:1006b00081002000618055000b003d000b002000f0
:1006c00061fe2f000100e1001d00340082817100f5
:1006d000610164008904d1000884d3000000e800af
:1006e000faff3a007100200061006400030070000e
:1006f000020060000900320061044400e0844c0004
:100700000988a500050032008b05e8006808e100b3
:1007100002003a008904d1000884d300f20f2000bf
:100720000258e10005003d00c75ddd00f907b20099
:100730008980750008007800000006000bf827008b
:100740008b007800000005000004be007700070061
:100750000003be000405be000200be0073000700d7
:10076000844f7500000006000200be006450e100e6
:10077000050036006420e100020036000968a3008d
:1007800001003a000800be000160a0004f0678009a
:100790004f05be004f04be0000000600f0ff2f0012
:1007a000f1ff2700f9ff3700811f78000100e0000a
:1007b00002003d0060001000e08018000300e0002f
:1007c00002003d0060011100e081190015000700e2
:1007d0004f00e00002003b0060001000e0801800c5
:1007e000000006006022b800060220000000d000d1
:1007f0008180d2000482d2008582d2000000a00055
:100800000202520083825a000300310002024200b9
:1008100083824a000000a1000603e900f3ff3a00ca
:1008200000000600efff07000400be000000060005
:10083000881f7800030478000300e00007003d00f3
:1008400060001000e080180060011900e0811900cc
:1008500002003b0001f02d000300370004000700f8
:1008600008f0a70001f0a0004f0478000000060087
:10087000889fbe008a9fbe00008270000402710043
:1008800004827100260032000004be000200be0097
:100890006011b8006b092000950220000182cf0092
:1008a0000a0039000541b1000082cf00070039007d
:1008b0000541b1000982cf00040039000541b100b3
:1008c0000882cf00010039000541b1000542520005
:1008d000120032000a003b00828171006101640055
:1008e0008100d1000080d3008984d3000884d30024
:1008f0008b05e8000442e800f7ff3a0007003700e4
:100900000804440089844c000000480081804800ad
:100910008b05e9000442e900f9ff3a0064ff070093
:100920004f05be004f04be0000000600c70ade00ef
:10093000f107b200f50fb20008003200e1cf42002b
:10094000020032000170a00024000500810f700039
:10095000010032000408050044000500810f70000a
:1009600002003a00140005008502e9000000400082
:1009700081c04800fcff3b000170a000240005007e
:020000040000fa
:100980000c00fa00bc0307007700070033000700e3
:100990009500070062000700ad030700d142800008
:1009a000b042800000805000cf80de003dff070095
:1009b0000001be000000200001302400e8fe070016
:1009c0001042880021428800c1428000d04280004d
:1009d00000805000cf80de0032ff07000001be0023
:1009e0000000200001302400ddfe070030428800b6
:1009f00041428800f2020700cac2a800cae2a80069
:100a0000c201070007030700060307008003070071
:100a1000a18620000e007800180307000e00780061
:100a2000e1852000b0187800a0107800e480400034
:100a300064004000b0187800a0107800e480400006
:100a400064004000b0187800a0107800e4804000f6
:100a500064004000bb020700eaff37000000fa0014
:100a60002174200062042000730520008248780071
:100a70008348780042c7a90011368000f00f2e008d
:100a80008080600000302000010070001036880077
:100a90002135800000fe2f00008060000010a000c3
:100aa0002035880001348000f00f2e008080600027
:100ab00000e0200001007000003488001134800044
:100ac00000fe2f0000806000f000b30010348800aa
:100ad00061368000f00f2e00808060000050210001
:100ae000010070006036880051368000f00f2e0043
:100af00080806000002021000100700050368800d6
:100b000021742000620420007305200082487800d0
:100b10008348780042c7a8000080fa000000060061
:100b20000000fa008220ef008680a9009680a800cd
:100b3000700580000000a0000010a1000020a100ae
:100b40007005880087a0a90097a0a80090058000e4
:100b50000040a0000050a1000060a10090058800a6
:100b60000080fa00000006000000fa000300070001
:100b7000100007000080fa00000006000000fa00e4
:100b80000001280020088800703e2000100888001e
:100b90008460a9009460a8002005800000c0a10026
:100ba00000d0a00000e0a100200588000080fa002d
:100bb000000006000000fa000000280090088800ed
:100bc00000802000700888000080fa000000060005
:100bd0000200fa00000f78001e007800900c8800d8
:100be0000080fa00000006000000fa00d00020009b
:100bf000200c88008221ef0000802000000c88007b
:100c0000d0002000b00c88009421ef00008020006c
:100c1000900c88000080fa00000006000200fa0034
:100c2000000f78001e007800000c88000080fa0099
:100c300000000600809fbe00829fbe003400f800c6
:100c400000002000a00188000000fa0000408000a1
:100c5000e20f5000290032005040800061408000c7
:100c600061004000e08048005040880061408800fa
:100c7000704080008140800090408800a140880042
:100c80000e28ef001028ef00204080000000e00058
:100c90001a00320040862000104078008080fb005f
:100ca00060428000808f500014003d00b040800002
:100cb000c1408000e00f5000e08f58000f0032006c
:100cc000b0408000c14080000001be009040800024
:100cd000a1408000800f5100818f59000400310035
:100ce000000c80000000e800000c880003003700c2
:100cf000000c80000000e900000c88008680a9003c
:100d00000080fa003400f9004f01be004f00be0021
:100d100000400600809fbe00829fbe003400f800a5
:100d200000002000a00188000000fa0000408000c0
:100d3000e20f500029003200d0408000e1408000e6
:100d400061004000e0804800d0408800e140880019
:100d5000f04080000141800010418800214188005e
:100d60001e28ef002028ef00204080000000e00057
:100d70001a00320040862000104078008080fb007e
:100d800070428000808f500014003d003041800090
:100d900041418000e00f5000e08f58000f0032000a
:100da00030418000414180000001be0010418000c0
:100db00021418000800f5100818f590004003100d3
:100dc000900c80000000e800900c880003003700c1
:100dd000900c80000000e900900c880087a0a9001a
:100de0000080fa003400f9004f01be004f00be0041
:100df0000040060000a0fe003400f800881f7800c4
:100e000008002000a80188004f0478000000fa00c4
:100e10005041800061418000e00f5000e08f580099
:100e200006003200504180006141800061005000a6
:100e3000e08058005041880061418800c041800036
:100e40000000e800c041880000408000e20f500030
:100e50000c003200f0408000014180006100400041
:100e6000e0804800f0408800014188007040800028
:100e70008140800061004000e080480070408800b0
:100e800081408800404380000000e00007003200fd
:100e9000304380000000e0000400320090418000f8
:100ea0000000e80090418800010037003228ef0080
:100eb000304380000000e00004003200a0418000c8
:100ec0000000e800a0418800010037003428ef004e
:100ed000404380000000e00004003200b041800088
:100ee0000000e800b0418800010037003628ef001c
:100ef0008460a9000080fa003400f9000080fe0040
:100f0000004006000400fa0010079800008020004e
:100f1000000f78009e009000f0072000808f5000a6
:100f20000d003c00cb82a8001e0090000000e000f5
:100f300002003c001000200010079800010820006b
:100f40001e009000008050004400dd000180200061
:100f5000008f5000110037009e0090000008200014
:100f6000808f50000c003400cb82a9009e009000be
:100f700000102000808f500002003400001020007c
:100f8000100798001e0090000008b1004400dd002a
:100f9000000f780001003700cb82a8001e00780007
:100fa0000bff07000080fa00000006000000fa00b6
:100fb0005116800000002100008060000000e00069
:100fc00004003a00900c80004400de000008b000ed
:100fd00006003700900c8000018020000080500047
:100fe0004400de0001082000008050000080fa006c
:100ff000000006000000fa005116800000402000aa
:10100000008060000000e00004003a00900c8000c6
:101010004400de000008b00006003700900c80009d
:1010200001802000008050004400de000108200004
:10103000008050000080fa00000006000000fa0066
:1010400000082000afff07000080fa000000060043
:101050000000fa0000082000020007000080fa00eb
:10106000000006000400fa0010079800008020002d
:10107000000f78009e009000f0072000808f500045
:101080000d003c00cb42a8001e0090000000e000d4
:1010900002003c001000200010079800010820000a
:1010a0001e009000008050004400dd000180200000
:1010b000008f5000110037009e00900000082000b3
:1010c000808f50000c003400cb42a9009e0090009d
:1010d00000102000808f500002003400001020001b
:1010e000100798001e0090000008b1004400dd00c9
:1010f000000f780001003700cb42a8001e007800e6
:10110000c6fe07000080fa00000006000000fa009a
:10111000caff0700ceff07000080fa0000000600ab
:101120000000fa00b0418000ea0f500004003400d3
:101130003628ef000428ef00c0ff07000028ef006a
:1011400040862000104078008080fb0070428000c4
:10115000808f50000400340040862000104078004a
:101160000080fb0067ff07004086200010407800e9
:101170008080fb0060428000808f500004003400bb
:1011800040862000104078000080fb00b5ff07007b
:10119000c141800040062000808f50001b003400b9
:1011a0003828ef00501680004700de0061406000e4
:1011b00000c0ea00614060000080fb006100600048
:1011c0004700dd0052168000f1f72f00810061001a
:1011d0000100700050168800501680004600de00a6
:1011e0006140600000c0ea00614060000080fb00d8
:1011f000610060004600dd0052168000f1fb2f0008
:101200008100610001007000501688000080fa0023
:10121000000006000000fa0091418000803e20009e
:10122000808f5000060034003228ef00200020009c
:1012300000408800cae2a800cac2a800b3ff0700a5
:10124000a1418000a00f2000808f500011003400c9
:1012500010002000204088001041800021418000c3
:10126000304188004141880090408000a1408000ca
:10127000b0408800c14088004cff070070428800e1
:101280005cff0700604288003428ef001000200057
:101290000040880040862000104078000080fb005d
:1012a00018ff070040862000104078000080fb00f7
:1012b0006cff070056010700304380000000e0008b
:1012c00002003200cac2a80001003700cac2a90049
:1012d0000080fa00000006000000fa009142800041
:1012e00080428000008050000000e800cf80de00d7
:1012f000ecfc07000001be000000200001382400c3
:1013000097fc0700d0418800e1418800c14280007d
:10131000b0428000008050000000e800cf80de0076
:10132000e0fc07000001be0000002000013824009e
:101330008bfc0700f0418800014288000080fa0021
:10134000000006000200fa0091418000803e20006b
:10135000808f5000020034003228ef000028ef0098
:10136000c1418000401f2000808f50001b003400ce
:101370003828ef00501680004700de006140600012
:1013800000c0ea00614060000080fb006100600076
:101390004700dd0052168000f1f72f008100610048
:1013a0000100700050168800501680004600de00d4
:1013b0006140600000c0ea00614060000080fb0006
:1013c000610060004600dd0052168000f1fb2f0036
:1013d0008100610001007000501688000000eb00e1
:1013e000000f780050862000104078008080fb00bd
:1013f00080428000808f500006003d005086200013
:10140000104078000080fb0080428800100020001f
:10141000000f780050862000104078008080fb008c
:1014200090428000808f50000600340050862000db
:10143000104078000080fb009042880010002000df
:10144000000f780040862000104078008080fb006c
:10145000b0428000808f500006003d004086200092
:10146000104078000080fb00b0428800100020008f
:10147000000f780040862000104078008080fb003c
:10148000c0428000808f500006003400408620005b
:10149000104078000080fb00c0428800100020004f
:1014a000000f78001e0078000000e0000500320008
:1014b0000000eb00000f780087ff070010002000fd
:1014c00080418800804180000000e0001b00320065
:1014d0003028ef00d0c6b300c100070090c6b300ab
:1014e000bf000700e0c6b300bd000700d0c3b300d3
:1014f000bb000700b0428000cf80de00fd00070087
:10150000704188004e010700d0c6b300b400070048
:1015100010c6b300b200070080c7b300b0000700d8
:10152000d0c3b300ae000700c0428000cf80de0011
:10153000f000070070418800410107000080fa00b8
:10154000000006000000fa0000408000e10f50009b
:1015500005003200e10f500005003900e20f500095
:101560000500320006003700edfe070004003700da
:1015700028ff07000200370072ff0700000000008c
:101580000080fa00000006000200fa00000f780058
:101590001e007800cf80de00504188006141880045
:1015a000000000005041800061418000e00f5000c9
:1015b000e08f5800fbff3a000080fa0000000600b0
:1015c0000000fa009701070020032000eeff07004b
:1015d0006f0107008040eb0020c5b3004a010700ff
:1015e00000cfb3007c01070050c5b3007a010700ab
:1015f0005e010700a0002000e3ff07006401070070
:1016000011c0b30020c5b3003f01070061002000f6
:10161000a086200094010700540107000080fa0012
:10162000000006000000fa0010002000d6ff0700ae
:10163000570107008040eb0020c5b30032010700ce
:101640000040eb0064010700480107001000200083
:10165000cdff07004e01070011c0b30020c5b30045
:101660002901070061002000a08620007e010700fc
:101670003e0107000080fa00000006000e00fa009c
:1016800000017800610798006e009000104078001b
:10169000704798006e0090000000e800104078004d
:1016a000604798006e0090000080e80010407800cd
:1016b0000080fb00c200dd006e009000650040006d
:1016c000104078000080fb006c0060004280de006b
:1016d00000804000200798006e00900063004000ea
:1016e000104078000080fb00c200dd006e0090001a
:1016f00065004000104078008081fb00000320005e
:10170000008061004480de000080400010079800e7
:101710006e00900064004000104078000080fb00e4
:10172000c200dd006e0090006500400010407800af
:101730000080fb004600de00004078000080fb00d7
:1017400000804000000f78006e00900065004000af
:10175000104078000080fb006100600000f0a700ee
:101760000000ea000000e9004f00de00400798009a
:101770006e00900065004000104078000080fb0083
:10178000620060000080d10000f0a7000000ea00c5
:101790000000e9004f00de00500798000e007800be
:1017a00082007800b0187800a0107800e480400033
:1017b00064004000b0187800a0107800e480400079
:1017c00064004000b0187800a0107800e480400069
:1017d00064004000020078000080fa00000006006b
:1017e0000200fa00004f7800000000001111800094
:1017f00000202000008060000000e000fbff3a00b5
:101800001e80fb00201188000080fa000000060006
:101810000200fa00a0c5b300f1ff07000000eb00d2
:10182000000f780005003700a08620001e00400051
:1018300010407800eaff07001e0fe8001e00780045
:10184000e50f5000f8ff34000080fa0000000600a9
:101850000000fa0000012000401188000000220072
:101860001011880080002800001188002342a80081
:101870000080fa00000006000000fa000080eb0083
:1018800060198800c022ef0040002c00401688003c
:101890000080fa00000006000000fa00d24080003c
:1018a000e34080004006200001002000800f51002e
:1018b000818f59000d003400501680004700de0073
:1018c0006140600000c0ea00614060000080fb00f1
:1018d000610060004700dd0052168000f1f72f0024
:1018e0008100610001007000501688000080fa003d
:1018f000000006001800fa00200f9800310f980031
:101900000000eb00000f78000000eb00000f7800f3
:1019100005003700680047001e004000a1c2b30068
:10192000014878001e0fe8001e007800eb0f500001
:10193000f8ff34002e099000be099000220798009d
:1019400033079800b000200010079800e800470017
:101950001e009000008040008040eb0001487800ad
:101960002e089000be089000e00f5000e08f580055
:1019700006003d002e089000be0890006000100098
:10198000e0801800200f9800310f98001e00900092
:101990000000e900100798002e089000be08900093
:1019a000a2002000030020007ffb07000040780019
:1019b0000043b00080407800680147001e0090009e
:1019c00000004100014878002e089000be089000f9
:1019d000a20020000300200023fb0700200f980036
:1019e000310f98002e089000be089000e00f5000c4
:1019f000e08f5800e5ff3a002e009000be009000f6
:101a0000e00f5000e08f580008003d001e009000dd
:101a10000000e90010079800e80047001e00900051
:101a200000804000d1c2b300014878001e00900041
:101a3000e8004700008040000080fa000000060037
:101a40000200fa000000eb00000f78001b003700d6
:101a5000714180001e0078000080400090407800b6
:101a6000f0c2b30080cf5000070034007141800005
:101a70001e007800008040009040780090c3b300c2
:101a800080cf500007003400714180001e007800b4
:101a90000080400090407800d0c2b30080cf50005a
:101aa00005003a00714180001e007800008040006f
:101ab000104078004aff07001e0fe8001e00780063
:101ac000eb0f5000e2ff3400a0c0b30044ff07005a
:101ad000d0c0b30042ff07000080fa0000000600fb
:101ae0000000fa0006a2a9000682a800000000007b
:101af00030108000700060000000e000fcff3a0041
:101b00000080fa00000006000200fa00004f780092
:101b1000114798001e80fb00000040008000780004
:101b20001e4090000000fb000100700010108800b3
:101b300000000000411080000000240000806000d0
:101b40000000e000fbff3a004010800061006000f0
:101b50000000e000f7ff3a00401080004f00de0078
:101b6000004078000080fa00000006000000fa0043
:101b70000642a800000000003010800064006000f1
:101b80000000e000fcff3a000080fa0000000600c0
:101b90000000fa000602a8000000000030108000db
:101ba000610060000000e000fcff3a000080fa00e5
:101bb000000006000000fa000622a8000000000055
:101bc00030108000620060000000e000fcff3a007e
:101bd0000080fa00000006000200fa00004f7800c2
:101be0001e80fb00101088000000000041108000e3
:101bf00000002400008060000000e000fbff3a00cd
:101c000040108000610060000000e000f7ff3a0033
:101c1000401080004f00de00004078000080fa0095
:101c2000000006000000fa00f004200020108800e8
:101c300007e2a8000080fa00000006000000fa0099
:101c40000662a800000000003010800068006000fc
:101c50000000e000fcff3a00001080000040780027
:101c60000080fa00000006000600fa00881f7800d5
:101c700010079800210798002e0090000000e00057
:101c8000160034000000eb00000f7800070037005a
:101c90001e0078009e00900000844000e7ff0700cf
:101ca000004c78008eff07001e0fe8002e00900009
:101cb0000000e9009e0f5000f5ff3c001e00780078
:101cc0009e00900000844000dcff0700004c78007c
:101cd00060e7200000000100010037000000000064
:101ce0004f0478000080fa00000006000000fa00af
:101cf00006a2a8000682a8000000000030108000a4
:101d0000700060000000e000fcff3a000080fa0074
:041d100000000600c9
:020000040000fa
:101d14005e0800001200000000000000000800003f
:101d24004c000000000000004c08000012000000fd
:101d3400020000008000800000160000da007c0031
:101d440000220000df00870000100000700800007f
:101d5400100000000200000030313200333435003e
:101d640036373800394142004344450046000000fc
:041d7400bc0e800021
:020000040000fa
:041d78000000000067
:020000040000fa
:020000040001f9
:0457f80087790000ad
:020000040000fa
:020000040001f9
:0457fc007f3e0000ec
:00000001FF
