:020000040000fa
:080000000002040000000000f2
:020000040000fa
:04000800a80200004a
:020000040000fa
:04000c00a802000046
:020000040000fa
:04001000a802000042
:020000040000fa
:04001400a80200003e
:020000040000fa
:04001800a80200003a
:020000040000fa
:04001c00a802000036
:020000040000fa
:04002000a802000032
:020000040000fa
:04002400a80200002e
:020000040000fa
:04002800a80200002a
:020000040000fa
:04002c00a802000026
:020000040000fa
:04003000a802000022
:020000040000fa
:04003400560400006e
:020000040000fa
:04003800a80200001a
:020000040000fa
:04003c00a802000016
:020000040000fa
:04004000a802000012
:020000040000fa
:04004400a80200000e
:020000040000fa
:04004800a80200000a
:020000040000fa
:04004c00a802000006
:020000040000fa
:04005000a802000002
:020000040000fa
:04005400a8020000fe
:020000040000fa
:04005800a8020000fa
:020000040000fa
:04005c00a8020000f6
:020000040000fa
:04006000a8020000f2
:020000040000fa
:04006400a8020000ee
:020000040000fa
:04006800a8020000ea
:020000040000fa
:04006c00a8020000e6
:020000040000fa
:04007000a8020000e2
:020000040000fa
:04007400a8020000de
:020000040000fa
:04007800da030000a7
:020000040000fa
:04007c00a8020000d6
:020000040000fa
:04008000a8020000d2
:020000040000fa
:04008400a8020000ce
:020000040000fa
:04008800a8020000ca
:020000040000fa
:04008c00a8020000c6
:020000040000fa
:04009000a8020000c2
:020000040000fa
:04009400a8020000be
:020000040000fa
:04009800a8020000ba
:020000040000fa
:04009c001804000044
:020000040000fa
:0400a000a8020000b2
:020000040000fa
:0400a400a8020000ae
:020000040000fa
:0400a800a8020000aa
:020000040000fa
:0400ac00a8020000a6
:020000040000fa
:0400b000a8020000a2
:020000040000fa
:0400b400a80200009e
:020000040000fa
:0400b800a80200009a
:020000040000fa
:0400bc00a802000096
:020000040000fa
:0400c000a802000092
:020000040000fa
:0400c400a80200008e
:020000040000fa
:0400c800a80200008a
:020000040000fa
:0400cc00a802000086
:020000040000fa
:0400d000a802000082
:020000040000fa
:0400d400a80200007e
:020000040000fa
:0400d800a80200007a
:020000040000fa
:0400dc00a802000076
:020000040000fa
:0400e000a802000072
:020000040000fa
:0400e400a80200006e
:020000040000fa
:0400e800a80200006a
:020000040000fa
:0400ec00a802000066
:020000040000fa
:0400f000a802000062
:020000040000fa
:0400f400a80200005e
:020000040000fa
:0400f800a80200005a
:020000040000fa
:0400fc00a802000056
:020000040000fa
:04010000a802000051
:020000040000fa
:04010400a80200004d
:020000040000fa
:04010800a802000049
:020000040000fa
:04010c00a802000045
:020000040000fa
:04011000a802000041
:020000040000fa
:04011400a80200003d
:020000040000fa
:04011800a802000039
:020000040000fa
:04011c00a802000035
:020000040000fa
:04012000a802000031
:020000040000fa
:04012400a80200002d
:020000040000fa
:04012800a802000029
:020000040000fa
:04012c00a802000025
:020000040000fa
:04013000a802000021
:020000040000fa
:04013400a80200001d
:020000040000fa
:04013800a802000019
:020000040000fa
:04013c00a802000015
:020000040000fa
:04014000a802000011
:020000040000fa
:04014400a80200000d
:020000040000fa
:04014800a802000009
:020000040000fa
:04020800a802000048
:020000040000fa
:04020c00a802000044
:020000040000fa
:04021000a802000040
:020000040000fa
:04021400a80200003c
:020000040000fa
:04021800a802000038
:020000040000fa
:04021c00a802000034
:020000040000fa
:04022000a802000030
:020000040000fa
:04022400a80200002c
:020000040000fa
:04022800a802000028
:020000040000fa
:04022c00a802000024
:020000040000fa
:04023000a802000020
:020000040000fa
:04023400a80200001c
:020000040000fa
:04023800a802000018
:020000040000fa
:04023c00a802000014
:020000040000fa
:04024000a802000010
:020000040000fa
:04024400a80200000c
:020000040000fa
:04024800a802000008
:020000040000fa
:04024c00a802000004
:020000040000fa
:04025000a802000000
:020000040000fa
:04025400a8020000fc
:020000040000fa
:04025800a8020000f8
:020000040000fa
:04025c00a8020000f4
:020000040000fa
:04026000a8020000f0
:020000040000fa
:04026400a8020000ec
:020000040000fa
:04026800a8020000e8
:020000040000fa
:04026c00a8020000e4
:020000040000fa
:04027000a8020000e0
:020000040000fa
:04027400a8020000dc
:020000040000fa
:04027800a8020000d8
:020000040000fa
:04027c00a8020000d4
:020000040000fa
:04028000a8020000d0
:020000040000fa
:04028400a8020000cc
:020000040000fa
:04028800a8020000c8
:020000040000fa
:04028c00a8020000c4
:020000040000fa
:04029000a8020000c0
:020000040000fa
:04029400a8020000bc
:020000040000fa
:04029800a8020000b8
:020000040000fa
:04029c00a8020000b4
:020000040000fa
:0402a000a8020000b0
:020000040000fa
:0402a400a8020000ac
:020000040000fa
:0402a800a8020000a8
:020000040000fa
:0402ac00a8020000a4
:020000040000fa
:0402b000a8020000a0
:020000040000fa
:0402b400a80200009c
:020000040000fa
:0402b800a802000098
:020000040000fa
:0402bc00a802000094
:020000040000fa
:0402c000a802000090
:020000040000fa
:0402c400a80200008c
:020000040000fa
:0402c800a802000088
:020000040000fa
:0402cc00a802000084
:020000040000fa
:0402d000a802000080
:020000040000fa
:0402d400a80200007c
:020000040000fa
:0402d800a802000078
:020000040000fa
:0402dc00a802000074
:020000040000fa
:0402e000a802000070
:020000040000fa
:0402e400a80200006c
:020000040000fa
:0402e800a802000068
:020000040000fa
:0402ec00a802000064
:020000040000fa
:0402f000a802000060
:020000040000fa
:0402f400a80200005c
:020000040000fa
:0402f800a802000058
:020000040000fa
:0402fc00a802000054
:020000040000fa
:04030000a80200004f
:020000040000fa
:04030400a80200004b
:020000040000fa
:04030800a802000047
:020000040000fa
:04030c00a802000043
:020000040000fa
:04031000a80200003f
:020000040000fa
:04031400a80200003b
:020000040000fa
:04031800a802000037
:020000040000fa
:04031c00a802000033
:020000040000fa
:04032000a80200002f
:020000040000fa
:04032400a80200002b
:020000040000fa
:04032800a802000027
:020000040000fa
:04032c00a802000023
:020000040000fa
:04033000a80200001f
:020000040000fa
:04033400a80200001b
:020000040000fa
:04033800a802000017
:020000040000fa
:04033c00a802000013
:020000040000fa
:04034000a80200000f
:020000040000fa
:04034400a80200000b
:020000040000fa
:04034800a802000007
:020000040000fa
:100400008f8120000e7f22000e0188000000000076
:10041000000020000000e000020032000001200087
:10042000200288000c000700004e20000100200080
:1004300011000700000020000000e0000200320070
:100440000000020000000000ac02020000000000fa
:100450000040da000000fe004440a9000000200037
:100460000000e0000300320000002000a00188002e
:100470004440a80000000600910188008000780038
:100480000000eb0015003700e280400032a0b4000d
:100490009101ba00e280400032a0b4009102ba009b
:1004a000e280400032a0b4000002eb00472bde00e7
:1004b000f507b200602ce10004003a000059eb009f
:1004c0008301e900fdff3e00040037006128e100e0
:1004d000010032000082eb000b00070011c3ba00dc
:1004e0001101ba000604e00003003a000200e00037
:1004f000e5ff3a0000000600f607b200960188000a
:1005000082007800f5ff37003159ba008301e90015
:100510000c0032002159ba008301e90008003200c2
:100520000400e00003003a00e280400032a0b40082
:10053000f5ff370011d9ba008301e900faff3a004c
:100540008100e800e180400032a0b4000000060015
:080550000040da000000fe008b
:020000040000fa
:100558000200fa00220007005e000700770007008b
:100568004a0007000080eb0060198800c022ef00f5
:1005780000002e00401688000000eb0077000700fe
:10058800c0032000000f78001e007800e300070079
:1005980003003700000000000100370000000000e1
:1005a800224080003340800090012000010020009c
:1005b800800f5100818f5900f6ff34000428ef00a6
:1005c8000628ef001e0078000000e000f3ff34006a
:1005d8001e0fe9001e007800d0000700f0ff37006a
:1005e8000000fa0021742000620420007305200036
:1005f800824878008348780042c7a90011368000f5
:10060800f00f2e0080806000003020000100700094
:10061800103688002135800000fe2f000080600021
:100628000010a0002035880001348000f00f2e0053
:100638008080600000e02000010070000034880025
:100648001134800000fe2f0000806000f000b3002d
:100658001034880061368000f00f2e008080600022
:1006680000502100010070006036880021742000cd
:1006780062042000730520008248780083487800cf
:1006880042c7a8000080fa00000006000000fa0037
:100698008220ef008680a9009680a800700580005f
:1006a8000000a0000010a1000020a1007005880033
:1006b80087a0a90097a0a800900580000040a0008e
:1006c8000050a1000060a100900588000080fa0099
:1006d800000006000000fa000300070010000700f1
:1006e8000080fa00000006000000fa00000128005f
:1006f80020088800703e2000100888008460a90047
:100708009460a8002005800000c0a10000d0a000cf
:1007180000e0a100200588000080fa000000060023
:100728000000fa000000280090088800007d2000e2
:10073800700888000080fa00000006000000fa0037
:10074800d0002000b00c88009421ef00803e2000eb
:10075800900c88000080fa00000006000200fa00f1
:10076800000f78001e007800900c88000080fa00c6
:10077800000006000000fa0050002000200c88004d
:100788008221ef00c05d2000000c88000080fa0084
:10079800000006000200fa00000f78001e00780032
:1007a800000c88000080fa0000000600809fbe0050
:1007b800821f78003400f80000002000a0018800a3
:1007c8000000fa00004080001140800061004000f5
:1007d800e0804800004088001140880050168000e2
:1007e8004600de006140600000c0ea006140600031
:1007f8000080fb00610060004600dd0052168000aa
:10080800f1fb2f0081006100010070005016880084
:100818008680a9000080fa003400f9004f017800b2
:100828004f00be0000400600809fbe00821f780077
:100838003400f80000002000a00188000000fa0041
:10084800204080003140800061004000e080480086
:100858002040880031408800501680004700de00a4
:100868006140600000c0ea00614060000080fb0059
:10087800610060004700dd0052168000f1f72f008c
:1008880081006100010070005016880087a0a9004f
:100898000080fa003400f9004f0178004f00be00d4
:1008a8000040060000a0fe003400f800881f780011
:1008b80008002000a80188004f0478000000fa0012
:1008c80042408000534080000080eb008080eb00b5
:1008d800800f5100818f590008003200424080008b
:1008e800534080000200be0061014100e0814900e0
:1008f8004240880053408800010037006000b8007b
:1009080040408800514088008460a9000080fa00b7
:100918003400f9000080fe00004006000400fa00e0
:1009280010079800007d2000000f78009e009000be
:10093800e0072000808f50000a003c00cb82a8000e
:100948001e0090000000e00002003d000000eb00e7
:10095800100798001e0090004400dd00000f78008a
:10096800110037009e009000f0072000808f500093
:100978000c003400cb82a9009e009000f00f2000ec
:10098800808f500002003400f00f200010079800fc
:100998001e009000f007b1004400dd00000f780051
:1009a80001003700cb82a8001e0078006bff07000b
:0809b8000080fa0000000600b7
:020000040000fa
:1009c00000080000160000000000000016080000eb
:1009d000020000000200000010000000f00480008f
:020000040000fa
:0409e0000000000013
:00000001FF
